:0300000002087C77
:0C087C00787FE4F6D8FD75810B0208427D
:0F086D00758920758DFD759850D28E75A89022D3
:03002300020800D0
:10080000C0E0C0D0309836859908C298E50824CF5A
:10081000601524D0601514601714601914601B242F
:1008200034701AC2878016D2878012758DE8800DC9
:10083000758DF48008758DFA8003758DFDD0D0D04C
:02084000E032A4
:1008420012086D85900BE50B75F00A84C454F0F51F
:1008520009E50B75F00A8485F00AE509450AF5A059
:0B086200AFA08F993099FDC29980D89B
:00000001FF
