:03000000020A0CE5
:0C0A0C00787FE4F6D8FD758116020A2BF5
:090A2200C2AFD288D2A8D2AF22E3
:03000300020A30BE
:030A3000B290324F
:050A2B00120A2280FE0A
:0A0A1800C0F9A4B0999282F8809012
:1009C100E4FDFCE4FBFAC3EB9FEE6480F8EA64808B
:1009D1009850070BBB00010A80EC0DBD00010CED26
:0509E10064644C70DEAF
:0109E60022EE
:0209E7008F0877
:1009E90078097C007D007BFF7A0A79187E007F0AEE
:1009F9001208D0E508C3940A500874092508F8E6D6
:020A0900F58076
:010A0B0022C8
:040981008E138F142E
:10098500751508E4FBFAAE13AF147C007D0A120856
:10099500F68D16AE13AF147C007D0A1208F68E1381
:1009A5008F148515A00BBB00010AEB64044A70D6B1
:0C09B500AF161209E77F057E000209C1A1
:10080000E709F608DFFA8046E709F208DFFA803EDA
:1008100088828C83E709F0A3DFFA8032E309F608C7
:10082000DFFA8078E309F208DFFA807088828C832F
:10083000E309F0A3DFFA806489828A83E0A3F608E3
:10084000DFFA805889828A83E0A3F208DFFA804CBD
:1008500080D280FA80C680D4806980F28033801094
:1008600080A680EA809A80A880DA80E280CA8033FD
:1008700089828A83ECFAE493A3C8C582C8CCC58375
:10088000CCF0A3C8C582C8CCC583CCDFE9DEE78045
:100890000D89828A83E493A3F608DFF9ECFAA9F0C4
:1008A000EDFB2289828A83ECFAE0A3C8C582C8CC1A
:1008B000C583CCF0A3C8C582C8CCC583CCDFEADE33
:1008C000E880DB89828A83E493A3F208DFF980CC95
:1008D00088F0EF60010E4E60C388F0ED2402B4048E
:1008E0000050B9F582EB2402B4040050AF23234535
:0608F00082239008507302
:1008F600C2D5EC30E709B2D5E4C39DFDE49CFCEE1D
:1009060030E715B2D5E4C39FFFE49EFE12092CC35F
:10091600E49DFDE49CFC800312092C30D507C3E45A
:060926009FFFE49EFE228B
:10092C00BC000BBE0029EF8DF084FFADF022E4CCAF
:10093C00F875F008EF2FFFEE33FEEC33FCEE9DEC78
:10094C00984005FCEE9DFE0FD5F0E9E4CEFD22EDBE
:10095C00F8F5F0EE8420D21CFEADF075F008EF2F08
:10096C00FFED33FD4007985006D5F0F222C398FDF9
:05097C000FD5F0EA2296
:00000001FF
