:03000000020800F3
:0C080000787FE4F6D8FD75812B020847D4
:100A2500141400C000F900A400B0009900920082DF
:0A0A350000F800800090022A000083
:0A0A4000EF25E02414F808E6F58025
:0D0A4A00E4FFFE0FBF00010EEFF44E70F64A
:010A5700227C
:100A5800758910C2AB758D3C758BAFC28FD28E7500
:030A6800A8882239
:0300230002096E61
:10096E00C0E0C0D075D00830983BAF997510008F9D
:10097E0011C298E510702EE51124CF601214601785
:10098E0014601C2403701E751200751300801675FA
:10099E001200751301800E75120075130280067514
:0A09AE001200751303D0D0D0E03220
:100A0000EE700CEF14600A14600C14600E24038066
:100A10000FD2B2C2B322C2B2D2B322D2B2D2B32266
:050A2000C2B2C2B322C6
:0F0A6B00758920758DFD759850D28E75A89022D3
:1009B800AB05AA04C2A2D2A0120A40120A4AC2A0D7
:1009C800D2A17C007D0AAF03AE0212088CEF25E0AD
:1009D8002414F808E6F5807C007D0AAF03AE021205
:1009E800088CAA04AB05120A4A120A4AC2A1D2A26A
:0809F800AF03120A40020A4A93
:10091700120A58E4F512F513120A6BC2B7C2B6C22F
:10092700B5AF13AE12120A00120A4AD2B7D2B6D224
:10093700B5120A4AC2B5C2B6120A4AAF90EFFD7C99
:1009470000AF13AE121209B88513993099FDC299F9
:100957008590993099FDC299E5136405451270BBDE
:07096700F51275130180B4C5
:10080C00020917E493A3F8E493A34003F68001F2E2
:10081C0008DFF48029E493A3F85407240CC8C333ED
:10082C00C4540F4420C8834004F456800146F6DFBC
:10083C00E4800B0102040810204080900A25E47E1D
:10084C00019360BCA3FF543F30E509541FFEE493B1
:10085C00A360010ECF54C025E060A840B8E493A378
:10086C00FAE493A3F8E493A3C8C582C8CAC583CAA3
:10087C00F0A3C8C582C8CAC583CADFE9DEE780BE5B
:010A3F0000B6
:10088C00C2D5EC30E709B2D5E4C39DFDE49CFCEE87
:10089C0030E715B2D5E4C39FFFE49EFE1208C2C335
:1008AC00E49DFDE49CFC80031208C230D507C3E430
:0608BC009FFFE49EFE22F6
:1008C200BC000BBE0029EF8DF084FFADF022E4CC1A
:1008D200F875F008EF2FFFEE33FEEC33FCEE9DECE3
:1008E200984005FCEE9DFE0FD5F0E9E4CEFD22ED29
:1008F200F8F5F0EE8420D21CFEADF075F008EF2F73
:10090200FFED33FD4007985006D5F0F222C398FD63
:050912000FD5F0EA2200
:00000001FF
