:030000000208A64D
:0C08A600787FE4F6D8FD7581220208ED91
:100A3A00140A00C000F900A400B0009900920082D4
:060A4A0000F8008000909E
:0B0A170025E0240AF808E6F580D2A4D0
:100A2200E4FDFCC3ED9FEE6480F8EC64809850070F
:070A32000DBD00010C80EC7A
:010A3900229A
:1009E800AE1FAF207C007D641209938F1EAE1FAF2F
:1009F800207C007D0A1209937C007D0A1209938DE0
:0F0A080009AE1FAF207C007D0A1209938D0822D2
:10093200EF64014E7006C293C292C291EF64024EFE
:100942007006D293C292C291EF64034E7006C293B4
:10095200D292C291EF64044E7006D293D292C291A7
:10096200EF64054E7006C293C292D291EF64064EB6
:100972007006D293C292D291EF64074E7006C29370
:10098200D292D291EF64084E7006D293D292D29153
:010992002242
:05080000D294E4FBFAB4
:10080500E4F521F52275A001EB25E0240CF808E6B6
:10081500F580C2A47FE87E03120A22C296C290D256
:1008250095EB2401FFE43AFE1209327F647E001243
:100835000A22D296D2907FF40E120A22C296C29054
:100845003095FD7F647E00120A22D295AFB08E1FCF
:100855008F201209E875A002E51E25E0240AF80894
:10086500E6F580D2A47FF47E01120A2275A004E584
:1008750009120A1775A008E508120A170522E522CC
:1008850070020521C3941EE5216480948050030203
:02089500080A4F
:0E0897000BBB00010AEB64084A60030208056F
:0108A5002230
:1008B200020800E493A3F8E493A34003F68001F254
:1008C20008DFF48029E493A3F85407240CC8C33347
:1008D200C4540F4420C8834004F456800146F6DF16
:1008E200E4800B0102040810204080900A3AE47E62
:1008F200019360BCA3FF543F30E509541FFEE4930B
:10090200A360010ECF54C025E060A840B8E493A3D1
:10091200FAE493A3F8E493A3C8C582C8CAC583CAFC
:10092200F0A3C8C582C8CAC583CADFE9DEE780BEB4
:010A500000A5
:10099300BC000BBE0029EF8DF084FFADF022E4CC48
:1009A300F875F008EF2FFFEE33FEEC33FCEE9DEC11
:1009B300984005FCEE9DFE0FD5F0E9E4CEFD22ED57
:1009C300F8F5F0EE8420D21CFEADF075F008EF2FA1
:1009D300FFED33FD4007985006D5F0F222C398FD92
:0509E3000FD5F0EA222F
:00000001FF
