:1008CE0014080000000100020003000400050006E9
:0608DE00000700080009FC
:1008AE00E4FDFCC3ED9FEC9E5015E4FBFA0BBB0080
:0F08BE00010AEB64644A70F50DBD00010C80E483
:0108CD002208
:10088C00E4F583F582AF82EF25E02408F808E6F55D
:10089C00A07FE87E031208AEA3E582640A4583704C
:0108AC00E467
:0108AD002228
:03000000020800F3
:0C080000787FE4F6D8FD75811B020847E4
:10080C0002088CE493A3F8E493A34003F68001F26E
:10081C0008DFF48029E493A3F85407240CC8C333ED
:10082C00C4540F4420C8834004F456800146F6DFBC
:10083C00E4800B01020408102040809008CEE47E76
:10084C00019360BCA3FF543F30E509541FFEE493B1
:10085C00A360010ECF54C025E060A840B8E493A378
:10086C00FAE493A3F8E493A3C8C582C8CAC583CAA3
:10087C00F0A3C8C582C8CAC583CADFE9DEE780BE5B
:0108E4000013
:00000001FF
