:0300000002094BA7
:0C094B00787FE4F6D8FD7581180209924F
:0A0A6600C0F9A4B0999282F88090C4
:040A81000217000058
:100A1700E4FDFCE4FBFAC3EB9FEA9E50070BBB0027
:0F0A2700010A80F20DBD00010CED64644C70E417
:010A3600229D
:020A37008F0C22
:100A3900780D7C007D007BFF7A0A79667E007F0A4B
:0B0A49001208D0740D250CF8E6F580B3
:010A5400227F
:03000300020A5599
:100A5500C0E0C2AF0518E51870020517D2AFD0E0A7
:010A6500325E
:0409D7008E088F09EE
:1009DB00750A08E4FBFAAE08AF097C007D0A120821
:1009EB00F68D0BAE08AF097C007D0A1208F68E0857
:1009FB008F09850AA00BBB00010AEB64044A70D671
:0C0A0B00AF0B120A377F0A7E00020A17A8
:080A7900D2B275A881D28822D7
:090A7000AF18AE171209D780F788
:10095700020A70E493A3F8E493A34003F68001F23C
:1009670008DFF48029E493A3F85407240CC8C333A1
:10097700C4540F4420C8834004F456800146F6DF70
:10098700E4800B0102040810204080900A81E47E75
:10099700019360BCA3FF543F30E509541FFEE49365
:1009A700A360010ECF54C025E060A840B8E493A32C
:1009B700FAE493A3F8E493A3C8C582C8CAC583CA57
:1009C700F0A3C8C582C8CAC583CADFE9DEE780BE0F
:010A85000070
:10080000E709F608DFFA8046E709F208DFFA803EDA
:1008100088828C83E709F0A3DFFA8032E309F608C7
:10082000DFFA8078E309F208DFFA807088828C832F
:10083000E309F0A3DFFA806489828A83E0A3F608E3
:10084000DFFA805889828A83E0A3F208DFFA804CBD
:1008500080D280FA80C680D4806980F28033801094
:1008600080A680EA809A80A880DA80E280CA8033FD
:1008700089828A83ECFAE493A3C8C582C8CCC58375
:10088000CCF0A3C8C582C8CCC583CCDFE9DEE78045
:100890000D89828A83E493A3F608DFF9ECFAA9F0C4
:1008A000EDFB2289828A83ECFAE0A3C8C582C8CC1A
:1008B000C583CCF0A3C8C582C8CCC583CCDFEADE33
:1008C000E880DB89828A83E493A3F208DFF980CC95
:1008D00088F0EF60010E4E60C388F0ED2402B4048E
:1008E0000050B9F582EB2402B4040050AF23234535
:0608F00082239008507302
:1008F600BC000BBE0029EF8DF084FFADF022E4CCE6
:10090600F875F008EF2FFFEE33FEEC33FCEE9DECAE
:10091600984005FCEE9DFE0FD5F0E9E4CEFD22EDF4
:10092600F8F5F0EE8420D21CFEADF075F008EF2F3E
:10093600FFED33FD4007985006D5F0F222C398FD2F
:050946000FD5F0EA22CC
:00000001FF
