:030000000209C032
:0C09C000787FE4F6D8FD75811B0208F674
:1009B000C0F9A4B0999282F880908880C6C0868ED3
:0D098300AF8274082FF8E6F5A07F647E00B7
:10099000E4FDFCC3ED9FEC9E5015E4FBFA0BBB009D
:0F09A000010ABA04F8BBFBF50DBD00010C80E4A1
:0109AF002225
:1008F60078087C007D007BFF7A0979B07E007F1046
:100906001208D0751A00751B01900000E51B6401E2
:10091600451A700E051BE51B7002051AD290C2918E
:100926008014E51B6402451A7012051BE51B700254
:10093600051AC290D291C292C2938032E51B64031B
:10094600451A7015C290C291D292C29312098305BC
:100956001BE51B701C051A8018E51B6404451A70FC
:1009660010F51A751B01C290C291C292D293120958
:0D09760083A3E58264104583709202090F8F
:10080000E709F608DFFA8046E709F208DFFA803EDA
:1008100088828C83E709F0A3DFFA8032E309F608C7
:10082000DFFA8078E309F208DFFA807088828C832F
:10083000E309F0A3DFFA806489828A83E0A3F608E3
:10084000DFFA805889828A83E0A3F208DFFA804CBD
:1008500080D280FA80C680D4806980F28033801094
:1008600080A680EA809A80A880DA80E280CA8033FD
:1008700089828A83ECFAE493A3C8C582C8CCC58375
:10088000CCF0A3C8C582C8CCC583CCDFE9DEE78045
:100890000D89828A83E493A3F608DFF9ECFAA9F0C4
:1008A000EDFB2289828A83ECFAE0A3C8C582C8CC1A
:1008B000C583CCF0A3C8C582C8CCC583CCDFEADE33
:1008C000E880DB89828A83E493A3F208DFF980CC95
:1008D00088F0EF60010E4E60C388F0ED2402B4048E
:1008E0000050B9F582EB2402B4040050AF23234535
:0608F00082239008507302
:00000001FF
