:10096D00140C00C000F900A400B0009900920082A0
:06097D0000F8008000906C
:1008E100E4F50AF50B850A22850B23E4F520F521B1
:1008F10012093B1209560521E52170020520C39416
:1009010088E520941340E9050BE50B7002050AC345
:0A0911009464E50A940040CD80C60E
:10091B00E4FDFCC3ED9FEC9E5015E4FBFA0BBB0012
:0F092B00010AEB64644A70F50DBD00010C80E415
:01093A00229A
:10093B00AE22AF237C007D0A12088C8F09AE22AF4A
:0B094B00237C007D0A12088C8D08221E
:10095600E50925E0240CF808E6F580E50825E024FD
:070966000CF808E6F5A022E1
:03000000020800F3
:0C080000787FE4F6D8FD758123020847DC
:10088C00BC000BBE0029EF8DF084FFADF022E4CC50
:10089C00F875F008EF2FFFEE33FEEC33FCEE9DEC19
:1008AC00984005FCEE9DFE0FD5F0E9E4CEFD22ED5F
:1008BC00F8F5F0EE8420D21CFEADF075F008EF2FA9
:1008CC00FFED33FD4007985006D5F0F222C398FD9A
:0508DC000FD5F0EA2237
:10080C000208E1E493A3F8E493A34003F68001F219
:10081C0008DFF48029E493A3F85407240CC8C333ED
:10082C00C4540F4420C8834004F456800146F6DFBC
:10083C00E4800B010204081020408090096DE47ED6
:10084C00019360BCA3FF543F30E509541FFEE493B1
:10085C00A360010ECF54C025E060A840B8E493A378
:10086C00FAE493A3F8E493A3C8C582C8CAC583CAA3
:10087C00F0A3C8C582C8CAC583CADFE9DEE780BE5B
:010983000073
:00000001FF
