:030000000209945E
:0C099400787FE4F6D8FD75811B0208F6A0
:10098400C0F9A4B0999282F880908880C6C0868EFF
:10096400E4FDFCC3ED9FEC9E5015E4FBFA0BBB00C9
:0F097400010ABA04F8BBFBF50DBD00010C80E4CD
:010983002251
:1008F60078087C007D007BFF7A0979847E007F1072
:100906001208D0751A00751B01E4F518F519900048
:1009160000C290C291D292D293AF8274082FF8E6A9
:10092600F5807F327E00120964A3E582640A45835E
:1009360070DFD290C291D292D29374082519F8E64C
:10094600F5807F647E001209640519E519700205B9
:0E09560018C3940AE5186480948040B280AB08
:10080000E709F608DFFA8046E709F208DFFA803EDA
:1008100088828C83E709F0A3DFFA8032E309F608C7
:10082000DFFA8078E309F208DFFA807088828C832F
:10083000E309F0A3DFFA806489828A83E0A3F608E3
:10084000DFFA805889828A83E0A3F208DFFA804CBD
:1008500080D280FA80C680D4806980F28033801094
:1008600080A680EA809A80A880DA80E280CA8033FD
:1008700089828A83ECFAE493A3C8C582C8CCC58375
:10088000CCF0A3C8C582C8CCC583CCDFE9DEE78045
:100890000D89828A83E493A3F608DFF9ECFAA9F0C4
:1008A000EDFB2289828A83ECFAE0A3C8C582C8CC1A
:1008B000C583CCF0A3C8C582C8CCC583CCDFEADE33
:1008C000E880DB89828A83E493A3F208DFF980CC95
:1008D00088F0EF60010E4E60C388F0ED2402B4048E
:1008E0000050B9F582EB2402B4040050AF23234535
:0608F00082239008507302
:00000001FF
